:100000000C9461000C9473000C9473000C947300B6
:100010000C9473000C9473000C9473000C94730094
:100020000C9473000C9473000C9473000C94730084
:100030000C9473000C9473000C9473000C94730074
:100040000C94D9010C9473000C9473000C947300FD
:100050000C9473000C9473000C9473000C94730054
:100060000C9473000C94730000000000240027001F
:100070002A0000000000250028002B0000000000DE
:1000800023002600290004040404040404040202DA
:100090000202020203030303030301020408102007
:1000A0004080010204081020010204081020000012
:1000B0000008000201000003040700000000000027
:1000C000000011241FBECFEFD8E0DEBFCDBF21E07E
:1000D000A0E0B1E001C01D92AD30B207E1F70E948F
:1000E00023020C94F9070C940000833081F028F46B
:1000F000813099F08230A9F008958730A9F08830D6
:10010000C9F08430B1F4809180008F7D03C080916C
:1001100080008F7780938000089584B58F7784BDA9
:10012000089584B58F7DFBCF8091B0008F77809349
:10013000B00008958091B0008F7DF9CFCF93DF9309
:10014000282F30E0F901E255FF4F8491F901E6567E
:10015000FF4FD491F901EA57FF4FC491CC23A1F08E
:1001600081110E947500EC2FF0E0EE0FFF1FE458A4
:10017000FF4FA591B491EC91ED2381E090E009F45B
:1001800080E0DF91CF91089580E090E0FACF1F9357
:10019000CF93DF93282F30E0F901E255FF4F849190
:1001A000F901E656FF4FD491F901EA57FF4FC49188
:1001B000CC23A9F0162F81110E947500EC2FF0E0DE
:1001C000EE0FFF1FEE58FF4FA591B4918FB7F89433
:1001D000EC91111108C0D095DE23DC938FBFDF9125
:1001E000CF911F910895DE2BF8CFCF93DF9390E04E
:1001F000FC01E656FF4F24918A579F4FFC018491E2
:100200008823D1F090E0880F991FFC01E859FF4F37
:10021000A591B491FC01EE58FF4FC591D4916111A5
:100220000EC09FB7F8948C91E22FE0958E238C93AB
:100230002881E223E8839FBFDF91CF9108958FB794
:10024000F894EC91E22BEC938FBFF6CF3FB7F89484
:100250008091050190910601A0910701B0910801DC
:1002600026B5A89B05C02F3F19F00196A11DB11D11
:100270003FBFBA2FA92F982F8827BC01CD01620F4D
:10028000711D811D911D42E0660F771F881F991F08
:100290004A95D1F708958F929F92AF92BF92CF92D5
:1002A000DF92EF92FF924B015C010E9426016B01ED
:1002B0007C010E9426016C197D098E099F09683E08
:1002C000734081059105A8F321E0821A9108A108E5
:1002D000B10888EEC80E83E0D81EE11CF11C811421
:1002E0009104A104B10429F7FF90EF90DF90CF9023
:1002F000BF90AF909F908F9008958F929F92AF92F2
:10030000BF92CF92DF92EF92FF92CF93DF93EC01F7
:100310004A015B0161E08DE00E94C7009E01DD0F94
:10032000440B550B60E472E48FE090E00E949E075E
:1003300069017A01E901CC0FDD1FCC0FDD1F259784
:10034000A0E2B3E0A50194010E94BD07A7019601B8
:10035000220F331F441F551F0E949E077901D12C85
:10036000C12C61E086E00E94C700CE010197F1F741
:1003700060E086E00E94C700CE010197F1F78FEFA1
:10038000C81AD80ACE14DF0461F760E08DE00E943D
:10039000C7006FE070E080E090E0DF91CF91FF90C8
:1003A000EF90DF90CF90BF90AF909F908F900C9484
:1003B0004B011F920F920FB60F9211242F933F9370
:1003C0008F939F93AF93BF9380910101909102010E
:1003D000A0910301B09104013091000123E0230FAB
:1003E0002D3758F50196A11DB11D20930001809372
:1003F000010190930201A0930301B0930401809145
:10040000050190910601A0910701B09108010196A4
:10041000A11DB11D8093050190930601A0930701D2
:10042000B0930801BF91AF919F918F913F912F9110
:100430000F900FBE0F901F90189526E8230F02967D
:10044000A11DB11DD2CF789484B5826084BD84B5DE
:10045000816084BD85B5826085BD85B5816085BDBF
:1004600080916E00816080936E0010928100809177
:1004700081008260809381008091810081608093FF
:100480008100809180008160809380008091B10024
:1004900084608093B1008091B00081608093B0004F
:1004A00080917A00846080937A0080917A008260E3
:1004B00080937A0080917A00816080937A008091A5
:1004C0007A00806880937A001092C10061E08DE02C
:1004D0000E94F50061E086E00E94F50060E08AE09D
:1004E0000E94F50080E0E82E80E0F82E8AE00E946D
:1004F0009E008C0190930C0180930B018CE00E9474
:100500009E00EC0190930A018093090101301105CE
:1005100009F0D6C240E253E060E070E08DE591E082
:100520000E947D0140E951E060E070E08DE591E0DE
:100530000E947D0140E951E060E070E08DE591E0CE
:100540000E947D0140E253E060E070E08DE591E0C3
:100550000E947D0140E951E060E070E089E491E0B3
:100560000E947D0140E951E060E070E08DE591E09E
:100570000E947D0140EB54E060E070E087E891E08C
:100580000E947D0140E951E060E070E089E491E083
:100590000E947D0140E456E060E070E085E091E07B
:1005A0000E947D0140E253E060E070E087E891E066
:1005B0000E947D0140E951E060E070E087E891E051
:1005C0000E947D0140E951E060E070E088EB91E03D
:1005D0000E947D0140E253E060E070E08EEE91E029
:1005E0000E947D0140E951E060E070E088EB91E01D
:1005F0000E947D0140E951E060E070E087E891E011
:100600000E947D0140EB54E060E070E088EB91E0F7
:100610000E947D0140E951E060E070E087E891E0F0
:100620000E947D0140E456E060E070E08DE591E0DD
:100630000E947D0140E456E060E070E08DE591E0CD
:100640000E947D0140EB54E060E070E08DE591E0B8
:100650000E947D0140E951E060E070E088EB91E0AC
:100660000E947D0140E253E060E070E08CE092E0A7
:100670000E947D0160E971E080E090E00E944B0102
:1006800040E951E060E070E08CE092E00E947D0182
:1006900040E951E060E070E08CE492E00E947D016E
:1006A00040E951E060E070E08CE092E00E947D0162
:1006B00040E951E060E070E08EEE91E00E947D0143
:1006C00040E951E060E070E08CE492E00E947D013E
:1006D00040E253E060E070E08CE092E00E947D0137
:1006E00060E971E080E090E00E944B0140E951E058
:1006F00060E070E08CE092E00E947D0140E951E012
:1007000060E070E08CE492E00E947D0140E951E0FD
:1007100060E070E08CE092E00E947D0140E951E0F1
:1007200060E070E08CE492E00E947D0140E951E0DD
:1007300060E070E084E992E00E947D0140E253E0D5
:1007400060E070E08BEB92E00E947D0140E951E0B7
:1007500060E070E088EB91E00E947D0140E951E0AB
:1007600060E070E08CE492E00E947D0140E951E09D
:1007700060E070E08CE092E00E947D0140E951E091
:1007800060E070E08EEE91E00E947D0140E951E072
:1007900060E070E088EB91E00E947D0140E951E06B
:1007A00060E070E087E891E00E947D0140E253E064
:1007B00060E070E08DE591E00E947D0160E273E011
:1007C00080E090E00E944B0140EB54E060E070E07C
:1007D00088EB91E00E947D0140E951E060E070E02B
:1007E0008EEE91E00E947D0140E951E060E070E012
:1007F00088EB91E00E947D0140E951E060E070E00B
:1008000087E891E00E947D0140E253E060E070E003
:100810008DE591E00E947D0140EB54E060E070E0E6
:100820008CE092E00E947D0140E951E060E070E0E0
:100830008CE492E00E947D0140E951E060E070E0CC
:100840008CE092E00E947D0140E951E060E070E0C0
:100850008EEE91E00E947D0140E253E060E070E0A6
:1008600088EB91E00E947D0140EB54E060E070E095
:100870008CE092E00E947D0140E951E060E070E090
:100880008CE092E00E947D0140EB54E060E070E07B
:100890008EEE91E00E947D0140E951E060E070E061
:1008A00087E891E00E947D0140EB54E060E070E059
:1008B0008CE092E00E947D0140E951E060E070E050
:1008C0008EEE91E00E947D0140E951E060E070E031
:1008D00088EB91E00E947D0140E951E060E070E02A
:1008E00087E891E00E947D0140E253E060E070E023
:1008F0008DE591E00E947D0140E951E060E070E00B
:1009000088EB91E00E947D0140E951E060E070E0F9
:1009100087E891E00E947D0140E253E060E070E0F2
:100920008DE591E00E947D0140E951E060E070E0DA
:1009300088EB91E00E947D0140E951E060E070E0C9
:1009400087E891E00E947D0140E951E060E070E0BD
:100950008DE591E00E947D0140E951E060E070E0AA
:1009600088EB91E00E947D0140E253E060E070E09E
:100970008CE092E00E947D0160E971E080E090E00F
:100980000E944B0140E951E060E070E08CE092E0B1
:100990000E947D0140E951E060E070E08CE492E06B
:1009A0000E947D0140E951E060E070E08CE092E05F
:1009B0000E947D0140E951E060E070E08EEE91E040
:1009C0000E947D0140E951E060E070E08CE492E03B
:1009D0000E947D0140E253E060E070E08CE092E034
:1009E0000E947D0160E971E080E090E00E944B018F
:1009F00040E951E060E070E08CE092E00E947D010F
:100A000040E951E060E070E08CE492E00E947D01FA
:100A100040E951E060E070E08CE092E00E947D01EE
:100A200040E951E060E070E08CE492E00E947D01DA
:100A300040E951E060E070E084E992E00E947D01CD
:100A400040E253E060E070E08BEB92E00E947D01B9
:100A500040E951E060E070E088EB91E00E947D01A8
:100A600040E951E060E070E08CE492E00E947D019A
:100A700040E951E060E070E08CE092E00E947D018E
:100A800040E951E060E070E08EEE91E00E947D016F
:100A900040E951E060E070E088EB91E00E947D0168
:100AA00040E951E060E070E087E891E00E947D015C
:100AB00040E456E060E070E08DE591E00E947D0149
:100AC000219709F034C240E951E060E070E085E030
:100AD00091E00E947D0140E951E060E070E08DE529
:100AE00091E00E947D0140E951E060E070E08DE519
:100AF00091E00E947D0140E951E060E070E08DE509
:100B000091E00E947D0140E253E060E070E08DE5FD
:100B100091E00E947D0140E951E060E070E088EBE7
:100B200091E00E947D0140E951E060E070E08EEECE
:100B300091E00E947D0140E951E060E070E088EBC7
:100B400091E00E947D0148EC50E060E070E087E8B1
:100B500091E00E947D0160E971E080E090E00E94F8
:100B60004B0148EC50E060E070E087E891E00E94C3
:100B70007D0148EC50E060E070E08DE591E00E947E
:100B80007D0148EC50E060E070E089E491E00E9473
:100B90007D0148EC50E060E070E08DE591E00E945E
:100BA0007D0148EC50E060E070E087E891E00E9451
:100BB0007D0148EC50E060E070E088EB91E00E943D
:100BC0007D0148EC50E060E070E087E891E00E9431
:100BD0007D0148EC50E060E070E08DE591E00E941E
:100BE0007D0148EC50E060E070E089E491E00E9413
:100BF0007D0148EC50E060E070E08DE591E00E94FE
:100C00007D0148EC50E060E070E087E891E00E94F0
:100C10007D0160E971E080E090E00E944B0148ECCA
:100C200050E060E070E087E891E00E947D0148ECD0
:100C300050E060E070E08DE591E00E947D0148ECBD
:100C400050E060E070E089E491E00E947D0148ECB2
:100C500050E060E070E08DE591E00E947D0148EC9D
:100C600050E060E070E087E891E00E947D0148EC90
:100C700050E060E070E088EB91E00E947D0148EC7C
:100C800050E060E070E087E891E00E947D0148EC70
:100C900050E060E070E08DE591E00E947D0148EC5D
:100CA00050E060E070E089E491E00E947D0148EC52
:100CB00050E060E070E08DE591E00E947D0140E948
:100CC00051E060E070E087E891E00E947D0160E91A
:100CD00071E080E090E00E944B0140E951E060E06B
:100CE00070E087E891E00E947D0140E951E060E01A
:100CF00070E088EB91E00E947D0140E951E060E006
:100D000070E08EEE91E00E947D0140E951E060E0EC
:100D100070E08CE492E00E947D0140E253E060E0EC
:100D200070E08CE092E00E947D0140E951E060E0DB
:100D300070E08EEE91E00E947D0140E253E060E0C1
:100D400070E088EB91E00E947D0140E951E060E0B5
:100D500070E087E891E00E947D0140E253E060E0AE
:100D600070E08DE591E00E947D0140E253E060E09B
:100D700070E08DE591E00E947D0148EC50E060E07C
:100D800070E088EB91E00E947D0148EC50E060E06B
:100D900070E088EB91E00E947D0140E951E060E065
:100DA00070E08CE092E00E947D0140E951E060E05B
:100DB00070E08CE092E00E947D0140E951E060E04B
:100DC00070E087E891E00E947D0140E951E060E039
:100DD00070E088EB91E00E947D0160E971E080E0C5
:100DE00090E00E944B0148EC50E060E070E088EB3E
:100DF00091E00E947D0148EC50E060E070E088EBFB
:100E000091E00E947D0140E951E060E070E08CE0FB
:100E100092E00E947D0140E951E060E070E08CE0EA
:100E200092E00E947D0140E951E060E070E087E8D7
:100E300091E00E947D0140E951E060E070E088EBC4
:100E400091E00E947D0160E971E080E090E00E9405
:100E50004B0148EC50E060E070E08DE591E00E94CD
:100E60007D0148EC50E060E070E08DE591E00E948B
:100E70007D0140E951E060E070E08EEE91E00E947B
:100E80007D0140E951E060E070E08EEE91E00E946B
:100E90007D0140E951E060E070E087E891E00E9468
:100EA0007D0140E951E060E070E088EB91E00E9454
:100EB0007D0160E971E080E090E00E944B0148EC28
:100EC00050E060E070E08DE591E00E947D0148EC2B
:100ED00050E060E070E08DE591E00E947D0140E926
:100EE00051E060E070E087E891E00E947D0140E918
:100EF00051E060E070E087E891E00E947D0140E908
:100F000051E060E070E089E491E00E947D0140E9F9
:100F100051E060E070E08DE591E00E947D0140E9E4
:100F200051E060E070E08DE591E00E947D01E11408
:100F3000F10409F4DBCA0E940000D8CA052E97FB11
:100F40001EF400940E94B50757FD07D00E94C80701
:100F500007FC03D04EF40C94B5075095409530959E
:100F600021953F4F4F4F5F4F089590958095709515
:100F700061957F4F8F4F9F4F08950E94EA07A59F6D
:100F8000900DB49F900DA49F800D911D1124089584
:100F9000A1E21A2EAA1BBB1BFD010DC0AA1FBB1F7D
:100FA000EE1FFF1FA217B307E407F50720F0A21BEF
:100FB000B30BE40BF50B661F771F881F991F1A945C
:100FC00069F760957095809590959B01AC01BD0186
:100FD000CF010895A29FB001B39FC001A39F700DE0
:100FE000811D1124911DB29F700D811D1124911D31
:060FF0000895F894FFCF04
:00000001FF
